:10000000D4EF00F00000000000EF00F0000000005E
:0A0010000000000000000000F3D71C
:10001C00040E006E15C002F0000E036E005004E0DA
:10002C000232029EFF0FFBD7040E0226036A000E5B
:10003C000322800E02120F0E03121650010A19E150
:10004C000F0E1514006E010E016E005004E0013607
:10005C000190FF0FFBD702C0E9FF03C0EAFFEECF10
:10006C0000F002C0E1FF03C0E2FF01500010E66E99
:10007C0012001650000A1DE10F0E1514006E00C080
:10008C0001F0010E006E015004E000360090FF0FED
:10009C00FBD7001C016E02C0E9FF03C0EAFFEECFE4
:1000AC0000F002C0E1FF03C0E2FF01500014E66E55
:1000BC0012001650020A18E10F0E1514006E010EF4
:1000CC00016E005004E001360190FF0FFBD702C017
:1000DC00E9FF03C0EAFFEECF00F002C0E1FF03C06E
:0A00EC00E2FF01500018E66E12005A
:1000F6000900F5CFE6FF0006FBE10106F9E1120073
:10010600040E006E15C002F0000E036E005004E0EF
:100116000232029EFF0FFBD7030E025E036A000E39
:10012600035A900E02120F0E03121650010A19E11D
:100136000F0E1514006E010E016E005004E001361C
:100146000190FF0FFBD702C0E9FF03C0EAFFEECF25
:1001560000F002C0E1FF03C0E2FF01500010E66EAE
:1001660012001650000A1CE10F0E1514006E00C096
:1001760001F0010E006E015004E000360090FF0F02
:10018600FBD7001C016E02C0E9FF03C0EAFFEECFF9
:1001960000F002C0E1FF03C0E2FF01500014E66E6A
:0201A600120045
:1001A800800E156E166AABDF946A800E156E010E0E
:1001B800166E30DF150E0B6E4B0E0C6EBE0E0D6EEE
:1001C8000D2EFED70C2EFCD70B2EFAD70000800E72
:1001D800156E166A1FDF150E0B6E4B0E0C6EBE0EDB
:1001E8000D6E0D2EFED70C2EFCD70B2EFAD7000065
:0401F800DCD7FFD77A
:020000040030CA
:0D000100220F0EFF0181FF0FC00FE00F4026
:00000001FF
