:1000000009EF02F00000000000EF00F00000000027
:0A0010000000000000000000F3D71C
:10001C00040E006E40C002F0000E036E005004E0AF
:10002C000232029EFF0FFBD7040E0226036A000E5B
:10003C000322800E02120F0E03124150010A19E125
:10004C000F0E4014006E010E016E005004E00136DC
:10005C000190FF0FFBD702C0E9FF03C0EAFFEECF10
:10006C0000F002C0E1FF03C0E2FF01500010E66E99
:10007C0012004150000A1DE10F0E4014006E00C02A
:10008C0001F0010E006E015004E000360090FF0FED
:10009C00FBD7001C016E02C0E9FF03C0EAFFEECFE4
:1000AC0000F002C0E1FF03C0E2FF01500014E66E55
:1000BC0012004150020A18E10F0E4014006E010E9E
:1000CC00016E005004E001360190FF0FFBD702C017
:1000DC00E9FF03C0EAFFEECF00F002C0E1FF03C06E
:0A00EC00E2FF01500018E66E12005A
:1000F6002BC040F0010E416E8EDF1BC040F0010E9A
:10010600416E89DF1DC040F0010E416E84DF1FC0C5
:1001160040F0010E416E7FDF15C040F0010E416ECA
:100126007ADF17C040F0010E416E75DF19C040F04E
:10013600010E416E70DF25C040F0010E416E6BDF8F
:1001460027C040F0416A67DF29C040F0416A63DF9B
:1001560021C040F0416A5FDF23C040F0416A5BDFA7
:02016600120085
:0E016800ACB202D00000FCD73EC0ADFF1200CA
:10017600AECF01F0ABA202D0AB98AB8801C000F0C5
:02018600120065
:100188002BC040F0010E416E45DF1BC040F0010E50
:10019800416E40DF1DC040F0010E416E3BDF1FC0C5
:1001A80040F0010E416E36DF15C040F0010E416E81
:1001B80031DF17C040F0416A2DDF19C040F0010E51
:1001C800416E28DF25C040F0416A24DF27C040F097
:1001D800416A20DF29C040F0010E416E1BDF21C0BB
:1001E80040F0416A17DF23C040F0010E416E12DF74
:0201F8001200F3
:1001FA002BC040F0010E416E0CDF1BC040F0010E17
:10020A00416E07DF1DC040F0010E416E02DF1FC0C4
:10021A0040F0010E416EFDDE15C040F0416AF9DE84
:10022A0017C040F0010E416EF4DE19C040F0416A79
:10023A00F0DE25C040F0010E416EEBDE27C040F033
:10024A00010E416EE6DE29C040F0416AE2DE21C0BD
:10025A0040F0010E416EDDDE23C040F0416AD9DE76
:02026A00120080
:10026C002BC040F0010E416ED3DE1BC040F0010EDE
:10027C00416ECEDE1DC040F0010E416EC9DE1FC0C6
:10028C0040F0010E416EC4DE15C040F0416AC0DE84
:10029C0017C040F0416ABCDE19C040F0416AB8DEBC
:1002AC0025C040F0416AB4DE27C040F0010E416E1B
:1002BC00AFDE29C040F0010E416EAADE21C040F035
:1002CC00010E416EA5DE23C040F0010E416EA0DE92
:0202DC0012000E
:1002DE00680E3A6E010E3B6E3E0E3C6E000E3D6E8B
:1002EE00760E2E6E010E2F6E000E306E000E316EDB
:1002FE00E60E326E030E336E000E346E000E356E49
:10030E00FF0E366EFF0E376E000E386E000E396E13
:10031E00AC8A900EAB6E948E949C9EAA03D0AECFF8
:06032E0000F0FBD71200F5
:10033400040E006E3EC002F0000E036E005004E096
:100344000232029EFF0FFBD7030E025E036A000E09
:10035400035A900E02120F0E03123F50010A19E1C4
:100364000F0E3E14006E010E016E005004E00136C3
:100374000190FF0FFBD702C0E9FF03C0EAFFEECFF5
:1003840000F002C0E1FF03C0E2FF01500010E66E7E
:1003940012003F50000A1CE10F0E3E14006E00C014
:1003A40001F0010E006E015004E000360090FF0FD2
:1003B400FBD7001C016E02C0E9FF03C0EAFFEECFC9
:1003C40000F002C0E1FF03C0E2FF01500014E66E3A
:0203D400120015
:1003D6000900F5CFE6FF0006FBE10106F9E1120090
:0A03E600000E9EBA010E006E120018
:1003F0002BC040F0416A12DE1BC040F0416A0EDEA5
:100400001DC040F0416A0ADE1FC040F0416A06DEAE
:020410001200D8
:100412006BEC02F015C03EF03F6A8BDF27C03EF066
:100422003F6A87DF2BC03EF03F6A83DF17C03EF092
:100432003F6A7FDF29C03EF03F6A7BDF1BC03EF090
:100442003F6A77DF19C03EF03F6A73DF21C03EF09A
:100452003F6A6FDF1DC03EF03F6A6BDF25C03EF092
:100462003F6A67DF23C03EF03F6A63DF1FC03EF092
:100472003F6A5FDF670EAF6EAC8430DFB8DFB2DF9A
:1004820000521AE077DE00C02DF000C03EF06BDEB5
:100492002D50320A01E12EDE2D50380A01E1E5DE4F
:1004A2002D50340A01E1A8DE2D50360A01E16BDE3F
:0C04B2002D50350A01E19BDFE2D7FFD797
:1004D60010EE15F0180E006E010E016EBE0EF66ED1
:0E04E600040EF76E000EF86EEBEC01F0120043
:0204BE006300D9
:0204C0006000DA
:0204C2008500B3
:0204C4008600B0
:0204C6008300B1
:0204C8008000B2
:0204CA008400AC
:0204CC008100AD
:0204CE008200AA
:0204D0006200C8
:0204D2008700A1
:0204D4006100C5
:020000040030CA
:0D000100220F0EFF0181FF0FC00FE00F4026
:00000001FF
