:10000000D9EF00F00000000000EF00F00000000059
:0A0010000000000000000000F3D71C
:0A001C000D0E0D6E0D2EFED7120022
:0A002600FADF8388F8DF83981200E8
:100030007F0E1F14006E00C01FF083948396BF0EC6
:10004000001600C01FF0008C00C01FF000C081FF30
:04005000EADF1200D1
:100054007F0E1F14016E01C01FF001AC03D0838218
:0A006400839002D083928380120083
:0E006E008398838483961FC081FFD6DF120023
:0E007C0083948396B80E1F10816ECFDF1200A2
:10008A00839283801A6A1A5007080EE31AC01FF077
:10009A00F0DF196A19503F0805E318C01FF0E2DFC4
:1000AA00192AF8D71A2AEFD7839083821A6A1A5024
:1000BA0007080EE31AC01FF0DCDF196A19503F085F
:1000CA0005E318C01FF0CEDF192AF8D71A2AEFD78E
:0200DA00120012
:1000DC00156A166A176A959A9598959495969590BF
:1000EC009592839A936A8394839683928380838A6E
:1000FC003F0E816E92DFC00E816E8FDF8382839004
:0E010C003F0E816E8ADFC00E816E87DF12000B
:10011A000900F5CFE6FF0006FBE10106F9E112004E
:10012A001C6A1D6A1E6A1C5007083DE31F6A8DDFA0
:10013A001CC01FF09EDF1F6A76DF1B6A1B503F0838
:10014A0011E31D501824F66E1E501920F76E000E8A
:10015A001A20F86E0900F5CF1FF084DF1D4A1E2A07
:10016A001B2AECD7400E1F6E70DF1CC01FF081DF08
:10017A00400E1F6E58DF400E1B6E1B507F0811E3A6
:10018A001D501824F66E1E501920F76E000E1A2004
:10019A00F86E0900F5CF1FF065DF1D4A1E2A1B2ADB
:0801AA00ECD71C2AC0D712009B
:1001B20094DF186A69DF0C0E186E060E196E000EB7
:1001C2001A6EB2DF1F0E0B6E710E0C6E1E0E0D6ECE
:1001D2000D2EFED70C2EFCD70B2EFAD700000C0EDC
:1001E200186E020E196E000E1A6E9EDF1F0E0B6E37
:1001F200710E0C6E1E0E0D6E0D2EFED70C2EFCD740
:0A0202000B2EFAD70000D7D7FFD764
:10020C009F9F9F1F1F1F9F9F9F1F1F1FFFFFFFFF72
:10021C00FFFFFFFFFFFFFFFFFFFFFFFFFFFFFFFFE2
:10022C00FFFFFFFF1F1F1FFFFFFFFFFFFFFFFFFF72
:10023C00FFFFFFFFFFFFFFFFFF3F1F1FDFDFFFFF82
:10024C00FFFFFFFFFFFFFFFFFFFFFFFFFFFFFFFFB2
:10025C00FFFF3F3F1FDFDFDF1F1F1FDFDF1F3F3FA2
:10026C003F3F3F3F3F3FFFFFFFFFFFFFFFFFFFFF12
:10027C00FFFFFFFFFFFFFFFFFFFFFFFFFFFFFFFF82
:10028C00FFFFFF808080FFFFFF808080FDFC80806F
:10029C0081FFC9888894D4808081FF808080FDFC98
:1002AC00808081FF808080E3E1C0849EBFD990B0C4
:1002BC00A28684CDFFFFFFFFFC808080FCFFE3C1A2
:1002CC00809C9C80C1E3FF808080FDFCFEFFFFFFD3
:1002DC00FFFFFCFCE08003036060C0818180E0F0E4
:1002EC00F07C7C7C80F0FFFFFFFFFFFFFFFFFFFF38
:1002FC00FFFFFFFFFFFFFFFFFFFFFFFFFFFFFFFF02
:10030C00FFFFFFFFFFFFFFFFFFFFFFFFFFFFFFFFF1
:10031C00FFFFFFFFFFFFFFFFFFFFFFFFFFFFFFFFE1
:10032C00FFFFFFFFFFFFFFFFFFFFFFFFFFFFFFFFD1
:10033C00FFFFFFFFFF7FFFFF7F7F7FFFFFFFFFFFC1
:10034C00FFFFFFFFFFFFFFFFFFFFFFFFFFFFFFFFB1
:10035C00FFFFFF7F7F7FFFFEFE7E7C7CFCFDFFFEB0
:10036C00FEFFFFFFFFFFFFFFFFFFFFFFFFFFFFFF92
:10037C00FFFFFFFFFFFFFFFFFFFFFFFFFFFFFFFF81
:10038C006743C38B1B1337FF0303037F7F030303F5
:10039C00FF0303037773030307FF0303037773035D
:1003AC000307FF8F0703737303078FFF030303F721
:1003BC00F3FBF3000000737F020202FF030303F759
:1003CC00F3030307FF0703037377030303FFFFFF25
:1003DC00FFFFFF8000007F7F7F000080FF6743C32B
:1003EC008B1B1337FFFFFFFFFFFFFFFFFFFFFFFF1D
:1003FC00FFFFFFFFFFFFFFFFFFFFFFFFFFFFFFFF01
:10040C00FFFEFEFEFEFEFFFFFFFEFEFEFFFEFEFEFB
:10041C00FFF0F0F0FFFEFEFEFFFFF0F0F0FFFEFE3F
:10042C00FEFFFFFFFFFEFEFEFEFFFFFFFEFEFEFFD8
:10043C00FFFFFFFFFEFEFEFEFEFEFEFFFEFEFEFFCA
:10044C00FFFEFEFEFFFBF2F2F2F3F0F0F8FFFFFF0F
:10045C00FFFFFFFFFFFEFEFEFEFEFFFFFFFFFEFEA7
:10046C00FEFEFEFFFFFFFFFFFFFFFF3F0F07E7F75B
:10047C000707FFFFFFFFFFFFFFFFFFFFFFFFFFFF70
:10048C00FFFFFFFFFFFFFFFFFFFFFFFFFFFFFFFF70
:10049C00FFFFFFFFFFFFFFFFFFFFFFFFFFFFFFFF60
:1004AC00FFFFFFFFFFFFFFFFFFFFFFFFFFFFFFFF50
:1004BC00FFFFFFFFFFFFFFFFFFFFFFFFFFFFFFFF40
:1004CC00FFFFFFFFFFFFFFFFFFFFFFFFFFFFFFFF30
:1004DC00FFFFFFFFFFFFFFFFFFFFFF1F1F1F1F1F80
:1004EC001F1F1F1F1F3FBF9FC7C3E0FCFEFFFFC0A6
:1004FC00C0C0CFCFCFCFDF1F3FFFFFFFFFFFFFFFFE
:10050C00FFFFFFFFFFFFFFFFFFFFFFFFFFFFFFFFEF
:10051C00FFFFFFFFFFFFFFFFFFFFFFFFFFFFFFFFDF
:10052C00FFFFFFFFFFFFFFFFFFFFFFFFFFFFFFFFCF
:10053C00FFFFFFFFFFFFFFFFFF000000007FFF003A
:10054C00000000FFFF0000000003000030FCFEFF75
:10055C0001000000080878FFFFFFFF00000000000A
:10056C000000000000FEFFFFFFFFFFFFFFFFFFFF8B
:10057C00FFFFFFFFFFFFFF0000FFFFFFFFFFFFFF7D
:10058C00FFFFFFFFFFFFFFFFFFFFFFFFFFFFFFFF6F
:10059C00FFFFFFFFFFFFFFFFFFFFFFFFFFFFFFFF5F
:1005AC00FFFFFFFFFFFFFFFFFFFFFFFFFFFFFFFF4F
:1005BC00FFFFFFFFFFFFFFFFFFFEFCFCFCFCFFFC4F
:1005CC00FCFCFCFFFFFCFCFCFCFFFCFCFCFCFDFF52
:1005DC00FEFCFCFCFCFCFCFFFFFFFFF0F0F0F0F07D
:1005EC00F0F0F0F0F0F9F9F9F9F1F1F3F7F7F7F7BA
:1005FC00F7F7F7F7F7F3F9FCFCFFFFFFFFFFFFFF3F
:10060C00FFFFFFFFFFFFFFFFFFFFFFFFFFFFFFFFEE
:10061C00FFFFFFFFFFFFFFFFFFFFFFFFFFFFFFFFDE
:10062C00FFFFFFFFFFFFFFFFFFFFFFFFFFFFFFFFCE
:10063C00FFFFFFFFFFFFFFFFFFFFFFFFFFFFFFFFBE
:10064C00FFFFFFFFFFFFFFFFFFFFFFFFFFFFFFFFAE
:10065C00FFFFFFFFFFFFFFFFFFFFFFFFFFFFFFFF9E
:10066C00FFFFFFFFFFFFFFFFFFFFFFFFFFFFFFFF8E
:10067C00FFFFFFFFFFFFFFFFFFFFFFFFFFFFFFFF7E
:10068C00FFFFFFFFFFFFFFFFFFFFFFFFFFFFBF3F6E
:10069C003FBFBF7FFFFFFFFFFF7FBFBFBF3F7F7F1E
:1006AC00FFBF3F3FBFFFFFFF3FFFFFFFBF3FBFFF4E
:1006BC00FFBF3F3FBFBFBF3FFFFFBF3F3FBFBF7F3E
:1006CC00FFFFFFFFBF3F3FBFBFBF3FFFFFBF3F3F2E
:1006DC00BFBFBF3F7F7FFFFFFFFFFFBF3F3FBFBFDE
:1006EC003F7FFFBF3F3FBFFFFFBF3FBFFFFFFFFF8E
:1006FC00FFFFFFFFFFFFFFFFFFFFFFFFFFFFFFFFFE
:10070C00FFFFFFFFFFFFFFFFFFFFFFFFFFFF7F006C
:10071C000077F7F8FCFFFFE1809F3F7F7F7FBE8073
:10072C00E1FFFEF0810FE3FCF8E0079FE1FEFFFF25
:10073C00FF7F00007B7B713FDFFF7F000077E78846
:10074C003C7FFFFF7F00007B7B713FDFFF7F000062
:10075C007F7F7FBF9EC0F1FFFFFFFF7F00007B7B91
:10076C007086CFFFFF7C7801037CFFFFFFFFFFFF4C
:10077C00FFFFFFFFFFFFFFFFFFFFFFFFFFFFFFFF7D
:10078C00FFFFFFFFFFFFFFFFFFFFFFFFFFFFFFFF6D
:10079C00FFFFFFFFFFFFFFFFFFFFFFFFFFFFFFFF5D
:1007AC00FFFFFFFFFFFFFFFFFFFFFFFFFFFFFFFF4D
:1007BC00FFFFFFFFFFFFFFFFFFFFFFFFFFFFFFFF3D
:1007CC00FFFFFFFFFFFFFFFFFFFFFFFFFFFFFFFF2D
:1007DC00FFFFFFFFFFFFFFFFFFFFFFFFFFFFFFFF1D
:1007EC00FFFFFFFFFFFFFFFFFFFFFFFFFFFFFFFF0D
:1007FC00FFFFFFFFFFFFFFFFFFFFFFFFFFFFFFFFFD
:10080C00FFFFFFFFFFFFFFFFFFFFFFFFFFFFFFFFEC
:10081C00FFFFFFFFFFFFFFFFFFFFFFFFFFFFFFFFDC
:10082C00FFFFFFFFFFFFFFFFFFFFFFFFFFFFFFFFCC
:10083C00FFFFFFFFFFFFFFFFFFFFFF030303037338
:10084C0073F7F7F78F7FFFFFFFFFFFFFFFFFFFFF40
:10085C00FFFFFFFFFFFFFFFFFFFFFFFFFFFFFFFF9C
:10086C00FFFFFFFFFFFFFFFFFFFFFFFFFFFFFFFF8C
:10087C00FFFFFFFFFFFFFFFFFFFFFFFFFFFFFFFF7C
:10088C00FFFFFFFFFFFFFFFFFFFFFF1F07078707AC
:10089C00071FFFFFFF070707C7C7C7C7070F1FFFC4
:1008AC00FFFF1F07078707071FFFFFFF0707074704
:1008BC00474747070F1FFFFFFFFF031818180000DB
:1008CC000001C3E33F06C3FFFF010101FFFFFFFF70
:1008DC00010101FF010101FF010101070F3F3F7FF2
:1008EC00010101FF0F0703C1F1F1F1C103070FFF74
:1008FC00FFFFFFFFFFFFFFFFFFFFFFFFFFFFFFFFFC
:10090C00FFFFFFFFFFFFFFFFFFCFC0C0E0E3E3E30C
:10091C00E0C0C0CFFFC0C0C0F8F8F0C0C0C4DEFF5C
:10092C00CFC0C0E0E3E3E3E0C0C0CFFFC0C0C0C4B1
:10093C00C4C4C4C0C0E1FFFFFFFFF0C7C7C3C3F00E
:10094C00F0F0F8F8FCFEFFFFFFF0E0E0E1E1E1E1A0
:10095C00E0E0F0FFE0E0E0FFE0E0E0FFFFFFFEFCA6
:10096C00E0E0E0FFFEFCF0E0E1E1E1E0F0FCFEFFA6
:10097C00FFFFFFFFFFFFFFFFFFFFFFFFFFFFFFFF7B
:10098C00FFFFFFFFFFFFFFFFFFFFFFFFFFFFFFFF6B
:10099C00FFFFFFFFFFFFFFFFFFFFFFFFFFFFFFFF5B
:1009AC00FFFFFFFFFFFFFFFFFFFFFFFFFFFFFFFF4B
:1009BC00FFFFFFFFFFFFFFFFFFFFFFFFFFFFFFFF3B
:1009CC00FFFFFFFFFFFFFFFFFFFFFFFFFFFFFFFF2B
:1009DC00FFFFFFFFFFFFFFFFFFFFFFFFFFFFFFFF1B
:1009EC00FFFFFFFFFFFFFFFFFFFFFFFFFFFFFFFF0B
:1009FC00FFFFFFFFFFFFFFFFFFFFFFFFFFFFFFFFFB
:020000040030CA
:0D000100220F0EFF0181FF0FC00FE00F4026
:00000001FF
